{
  "contractName": "Trust",
  "abi": [
    {
      "inputs": [],
      "stateMutability": "nonpayable",
      "type": "constructor"
    },
    {
      "inputs": [],
      "name": "admin",
      "outputs": [
        {
          "internalType": "address",
          "name": "",
          "type": "address"
        }
      ],
      "stateMutability": "view",
      "type": "function",
      "constant": true
    },
    {
      "inputs": [
        {
          "internalType": "address",
          "name": "",
          "type": "address"
        }
      ],
      "name": "kids",
      "outputs": [
        {
          "internalType": "uint256",
          "name": "amount",
          "type": "uint256"
        },
        {
          "internalType": "uint256",
          "name": "maturity",
          "type": "uint256"
        },
        {
          "internalType": "bool",
          "name": "paid",
          "type": "bool"
        }
      ],
      "stateMutability": "view",
      "type": "function",
      "constant": true
    },
    {
      "inputs": [
        {
          "internalType": "address",
          "name": "kid",
          "type": "address"
        },
        {
          "internalType": "uint256",
          "name": "timeToMaturiy",
          "type": "uint256"
        }
      ],
      "name": "addKid",
      "outputs": [],
      "stateMutability": "payable",
      "type": "function",
      "payable": true
    },
    {
      "inputs": [],
      "name": "withdraw",
      "outputs": [],
      "stateMutability": "nonpayable",
      "type": "function"
    }
  ],
  "bytecode": "0x608060405234801561001057600080fd5b5033600160006101000a81548173ffffffffffffffffffffffffffffffffffffffff021916908373ffffffffffffffffffffffffffffffffffffffff160217905550610900806100616000396000f3fe60806040526004361061003f5760003560e01c80632438628c146100445780633ccfd60b1461008357806340990e301461009a578063f851a440146100b6575b600080fd5b34801561005057600080fd5b5061006b600480360381019061006691906104ea565b6100e1565b60405161007a9392919061054b565b60405180910390f35b34801561008f57600080fd5b50610098610118565b005b6100b460048036038101906100af91906105ae565b6102ab565b005b3480156100c257600080fd5b506100cb610461565b6040516100d891906105fd565b60405180910390f35b60006020528060005260406000206000915090508060000154908060010154908060020160009054906101000a900460ff16905083565b60008060003373ffffffffffffffffffffffffffffffffffffffff1673ffffffffffffffffffffffffffffffffffffffff168152602001908152602001600020905060008160000154116101a1576040517f08c379a000000000000000000000000000000000000000000000000000000000815260040161019890610675565b60405180910390fd5b42816001015411156101e8576040517f08c379a00000000000000000000000000000000000000000000000000000000081526004016101df906106e1565b60405180910390fd5b600015158160020160009054906101000a900460ff16151514610240576040517f08c379a00000000000000000000000000000000000000000000000000000000081526004016102379061074d565b60405180910390fd5b60018160020160006101000a81548160ff0219169083151502179055503373ffffffffffffffffffffffffffffffffffffffff166108fc82600001549081150290604051600060405180830381858888f193505050501580156102a7573d6000803e3d6000fd5b5050565b600160009054906101000a900473ffffffffffffffffffffffffffffffffffffffff1673ffffffffffffffffffffffffffffffffffffffff163373ffffffffffffffffffffffffffffffffffffffff161461033b576040517f08c379a0000000000000000000000000000000000000000000000000000000008152600401610332906107b9565b60405180910390fd5b60008060008473ffffffffffffffffffffffffffffffffffffffff1673ffffffffffffffffffffffffffffffffffffffff16815260200190815260200160002060000154146103bf576040517f08c379a00000000000000000000000000000000000000000000000000000000081526004016103b690610825565b60405180910390fd5b604051806060016040528034815260200182426103dc9190610874565b8152602001600015158152506000808473ffffffffffffffffffffffffffffffffffffffff1673ffffffffffffffffffffffffffffffffffffffff168152602001908152602001600020600082015181600001556020820151816001015560408201518160020160006101000a81548160ff0219169083151502179055509050505050565b600160009054906101000a900473ffffffffffffffffffffffffffffffffffffffff1681565b600080fd5b600073ffffffffffffffffffffffffffffffffffffffff82169050919050565b60006104b78261048c565b9050919050565b6104c7816104ac565b81146104d257600080fd5b50565b6000813590506104e4816104be565b92915050565b600060208284031215610500576104ff610487565b5b600061050e848285016104d5565b91505092915050565b6000819050919050565b61052a81610517565b82525050565b60008115159050919050565b61054581610530565b82525050565b60006060820190506105606000830186610521565b61056d6020830185610521565b61057a604083018461053c565b949350505050565b61058b81610517565b811461059657600080fd5b50565b6000813590506105a881610582565b92915050565b600080604083850312156105c5576105c4610487565b5b60006105d3858286016104d5565b92505060206105e485828601610599565b9150509250929050565b6105f7816104ac565b82525050565b600060208201905061061260008301846105ee565b92915050565b600082825260208201905092915050565b7f6f6e6c79206b69642063616e2077697468647261770000000000000000000000600082015250565b600061065f601583610618565b915061066a82610629565b602082019050919050565b6000602082019050818103600083015261068e81610652565b9050919050565b7f746f6f206561726c790000000000000000000000000000000000000000000000600082015250565b60006106cb600983610618565b91506106d682610695565b602082019050919050565b600060208201905081810360008301526106fa816106be565b9050919050565b7f7061696420616c72656164790000000000000000000000000000000000000000600082015250565b6000610737600c83610618565b915061074282610701565b602082019050919050565b600060208201905081810360008301526107668161072a565b9050919050565b7f6f6e6c792061646d696e00000000000000000000000000000000000000000000600082015250565b60006107a3600a83610618565b91506107ae8261076d565b602082019050919050565b600060208201905081810360008301526107d281610796565b9050919050565b7f6b696420616c7265616479206578697374000000000000000000000000000000600082015250565b600061080f601183610618565b915061081a826107d9565b602082019050919050565b6000602082019050818103600083015261083e81610802565b9050919050565b7f4e487b7100000000000000000000000000000000000000000000000000000000600052601160045260246000fd5b600061087f82610517565b915061088a83610517565b9250827fffffffffffffffffffffffffffffffffffffffffffffffffffffffffffffffff038211156108bf576108be610845565b5b82820190509291505056fea264697066735822122025aabfe500ae7afdedcad1a7e112be5095fcf285d0076cbb9bc8869ee847ef1664736f6c634300080d0033",
  "immutableReferences": {},
  "source": "// SPDX-License-Identifier: MIT\npragma solidity >=0.4.22 <0.9.0;\n\ncontract Trust {\n    struct Kid {\n    uint amount;\n    uint maturity;\n    bool paid;\n  }\n\n  mapping(address => Kid) public kids;\n  address public admin;\n\n  constructor() {\n    admin = msg.sender;\n  }\n  function addKid(address kid,uint timeToMaturiy) external payable {\n    require(msg.sender == admin, 'only admin');\n    require(kids[kid].amount == 0,\"kid already exist\");\n    kids[kid] = Kid(msg.value,block.timestamp + timeToMaturiy, false);\n\n  }\n  function withdraw() external{\n    Kid storage kid = kids[msg.sender];\n    require(kid.amount >0, 'only kid can withdraw');\n    require(kid.maturity <= block.timestamp, 'too early');\n    require(kid.paid == false, 'paid already');\n    kid.paid = true;\n    payable(msg.sender).transfer(kid.amount);\n  }\n}\n",
  "sourcePath": "E:\\Projects\\Blockchain\\First Solidity\\contracts\\Trust.sol",
  "compiler": {
    "name": "solc",
    "version": "0.8.13+commit.abaa5c0e.Emscripten.clang"
  },
  "schemaVersion": "3.4.7",
  "updatedAt": "2022-05-14T07:38:49.739Z",
  "networkType": "ethereum",
  "devdoc": {
    "kind": "dev",
    "methods": {},
    "version": 1
  },
  "userdoc": {
    "kind": "user",
    "methods": {},
    "version": 1
  }
}